{"abi":[{"type":"constructor","inputs":[],"stateMutability":"nonpayable"},{"type":"function","name":"DOMAIN_SEPARATOR","inputs":[],"outputs":[{"name":"","type":"bytes32","internalType":"bytes32"}],"stateMutability":"view"},{"type":"function","name":"authTokens","inputs":[{"name":"tokenId","type":"bytes32","internalType":"bytes32"}],"outputs":[{"name":"tokenId","type":"bytes32","internalType":"bytes32"},{"name":"owner","type":"address","internalType":"address"},{"name":"agent","type":"address","internalType":"address"},{"name":"opType","type":"uint8","internalType":"enum Types.OperationType"},{"name":"maxAmount","type":"uint256","internalType":"uint256"},{"name":"validUntil","type":"uint256","internalType":"uint256"},{"name":"used","type":"bool","internalType":"bool"},{"name":"nonce","type":"uint256","internalType":"uint256"}],"stateMutability":"view"},{"type":"function","name":"consumeAuth","inputs":[{"name":"tokenId","type":"bytes32","internalType":"bytes32"},{"name":"agent","type":"address","internalType":"address"},{"name":"opType","type":"uint8","internalType":"enum Types.OperationType"},{"name":"amount","type":"uint256","internalType":"uint256"},{"name":"deadline","type":"uint256","internalType":"uint256"},{"name":"v","type":"uint8","internalType":"uint8"},{"name":"r","type":"bytes32","internalType":"bytes32"},{"name":"s","type":"bytes32","internalType":"bytes32"}],"outputs":[{"name":"","type":"bool","internalType":"bool"}],"stateMutability":"nonpayable"},{"type":"function","name":"getAuthDigest","inputs":[{"name":"tokenId","type":"bytes32","internalType":"bytes32"},{"name":"agent","type":"address","internalType":"address"},{"name":"opType","type":"uint8","internalType":"enum Types.OperationType"},{"name":"amount","type":"uint256","internalType":"uint256"},{"name":"deadline","type":"uint256","internalType":"uint256"}],"outputs":[{"name":"","type":"bytes32","internalType":"bytes32"}],"stateMutability":"view"},{"type":"function","name":"issueAuthToken","inputs":[{"name":"agent","type":"address","internalType":"address"},{"name":"opType","type":"uint8","internalType":"enum Types.OperationType"},{"name":"maxAmount","type":"uint256","internalType":"uint256"},{"name":"validitySeconds","type":"uint256","internalType":"uint256"}],"outputs":[{"name":"tokenId","type":"bytes32","internalType":"bytes32"}],"stateMutability":"nonpayable"},{"type":"function","name":"ownerNonce","inputs":[{"name":"owner","type":"address","internalType":"address"}],"outputs":[{"name":"","type":"uint256","internalType":"uint256"}],"stateMutability":"view"},{"type":"function","name":"revokeAuthToken","inputs":[{"name":"tokenId","type":"bytes32","internalType":"bytes32"}],"outputs":[],"stateMutability":"nonpayable"},{"type":"function","name":"usedDigests","inputs":[{"name":"digest","type":"bytes32","internalType":"bytes32"}],"outputs":[{"name":"","type":"bool","internalType":"bool"}],"stateMutability":"view"},{"type":"function","name":"validateAuth","inputs":[{"name":"tokenId","type":"bytes32","internalType":"bytes32"},{"name":"agent","type":"address","internalType":"address"},{"name":"opType","type":"uint8","internalType":"enum Types.OperationType"},{"name":"amount","type":"uint256","internalType":"uint256"}],"outputs":[{"name":"","type":"bool","internalType":"bool"}],"stateMutability":"view"},{"type":"event","name":"AuthTokenIssued","inputs":[{"name":"tokenId","type":"bytes32","indexed":true,"internalType":"bytes32"},{"name":"owner","type":"address","indexed":true,"internalType":"address"},{"name":"agent","type":"address","indexed":true,"internalType":"address"},{"name":"validUntil","type":"uint256","indexed":false,"internalType":"uint256"}],"anonymous":false},{"type":"event","name":"AuthTokenRevoked","inputs":[{"name":"tokenId","type":"bytes32","indexed":true,"internalType":"bytes32"},{"name":"owner","type":"address","indexed":true,"internalType":"address"}],"anonymous":false},{"type":"error","name":"DeadlineExpired","inputs":[]},{"type":"error","name":"DigestAlreadyUsed","inputs":[]},{"type":"error","name":"InvalidAddress","inputs":[]},{"type":"error","name":"InvalidAmount","inputs":[]},{"type":"error","name":"InvalidSignature","inputs":[]},{"type":"error","name":"InvalidToken","inputs":[]},{"type":"error","name":"NotFound","inputs":[]},{"type":"error","name":"TokenUsed","inputs":[]},{"type":"error","name":"Unauthorized","inputs":[]}],"bytecode":{"object":"0x60a060405234801561000f575f80fd5b50604080517f8b73c3c69bb8fe3d512ecc4cf759cc79239f7b179b0ffacaa9a75d522b39400f60208201527f1b670705fa578b3680764d38a85b253adad823135aef6fbb7c1a1d9157bef26d918101919091527fc89efdaa54c0f20c7adf612882df0950f5a951637e0307cdcb4c672f298b8bc660608201524660808201523060a082015260c00160408051601f198184030181529190528051602090910120608052608051610c686100d05f395f8181609901526102ae0152610c685ff3fe608060405234801561000f575f80fd5b5060043610610090575f3560e01c8063b4b51a7411610063578063b4b51a741461016c578063c3a3fded1461017f578063d39c4de7146101a2578063e8ad29b4146101c4578063f066faf4146101e3575f80fd5b80633644e5151461009457806388e40e5e146100ce5780639584b419146100e157806396db5f9c14610157575b5f80fd5b6100bb7f000000000000000000000000000000000000000000000000000000000000000081565b6040519081526020015b60405180910390f35b6100bb6100dc36600461098d565b6101f6565b6101436100ef3660046109d7565b5f60208190529081526040902080546001820154600283015460038401546004850154600586015460069096015494956001600160a01b039485169594841694600160a01b90940460ff9081169491169088565b6040516100c5989796959493929190610a02565b61016a6101653660046109d7565b610301565b005b6100bb61017a366004610a69565b61039f565b61019261018d366004610aa8565b6105b4565b60405190151581526020016100c5565b6101926101b03660046109d7565b60026020525f908152604090205460ff1681565b6100bb6101d2366004610b1e565b60016020525f908152604090205481565b6101926101f1366004610b3e565b610819565b5f8061029e878787600381111561020f5761020f6109ee565b5f8b815260208181526040918290206006015482517f7196ca9f810f5b58e098ebfcb36c28c6ecf47097d279e711f087aeea798bcd6e81840152808401969096526001600160a01b0394909416606086015260ff92909216608085015260a0840189905260c084019290925260e080840188905282518085039091018152610100909301909152815191012090565b60405161190160f01b60208201527f00000000000000000000000000000000000000000000000000000000000000006022820152604281018290529091506062016040516020818303038152906040528051906020012091505095945050505050565b5f81815260208190526040902060018101546001600160a01b0316331461033a576040516282b42960e81b815260040160405180910390fd5b600581015460ff161561036057604051633facdf6f60e11b815260040160405180910390fd5b60058101805460ff19166001179055604051339083907f9f24c6d8f806f5fcc1d6a5a3d4f13f25a4c996a50f9f6a557669dcbab3deca1a905f90a35050565b5f6001600160a01b0385166103c75760405163e6c4247b60e01b815260040160405180910390fd5b8215806103d2575081155b156103f05760405163162908e360e11b815260040160405180910390fd5b335f9081526001602052604081208054829061040b90610b93565b918290555090505f61041d8442610bab565b90503387878785854660405160200161043c9796959493929190610bc4565b604051602081830303815290604052805190602001209250604051806101000160405280848152602001336001600160a01b03168152602001886001600160a01b03168152602001876003811115610496576104966109ee565b8152602080820188905260408083018590525f6060808501829052608090940187905287815280835281902084518155918401516001830180546001600160a01b03199081166001600160a01b03938416179091559185015160028401805493841691909216908117825593850151929390916001600160a81b03191617600160a01b83600381111561052b5761052b6109ee565b02179055506080820151600382015560a0820151600482015560c082015160058201805460ff191691151591909117905560e0909101516006909101556040518181526001600160a01b03881690339085907f975f954f3f862ebd9b239f692f982eef9fbaa57f1c70b66120d4be68110006559060200160405180910390a45050949350505050565b5f88815260208190526040812060018101546001600160a01b03166105ec5760405163c5723b5160e01b815260040160405180910390fd5b60028101546001600160a01b038a811691161461061c5760405163c1ab6dc160e01b815260040160405180910390fd5b87600381111561062e5761062e6109ee565b6002820154600160a01b900460ff16600381111561064e5761064e6109ee565b1461066c5760405163c1ab6dc160e01b815260040160405180910390fd5b600581015460ff161561069257604051633facdf6f60e11b815260040160405180910390fd5b8615806106a25750806003015487115b156106c05760405163162908e360e11b815260040160405180910390fd5b428610806106d15750428160040154105b806106df5750806004015486115b156106fd57604051631ab7da6b60e01b815260040160405180910390fd5b5f61070b8b8b8b8b8b6101f6565b5f8181526002602052604090205490915060ff161561073d576040516306542de760e11b815260040160405180910390fd5b604080515f8082526020820180845284905260ff891692820192909252606081018790526080810186905260019060a0016020604051602081039080840390855afa15801561078e573d5f803e3d5ffd5b5050604051601f1901519150506001600160a01b03811615806107c1575060018301546001600160a01b03828116911614155b156107df57604051638baa579f60e01b815260040160405180910390fd5b505f9081526002602052604090208054600160ff199182168117909255600592909201805490921681179091559998505050505050505050565b5f848152602081815260408083208151610100810183528154815260018201546001600160a01b039081169482019490945260028201549384169281019290925283926060830190600160a01b900460ff16600381111561087c5761087c6109ee565b600381111561088d5761088d6109ee565b8152600382015460208201526004820154604080830191909152600583015460ff16151560608301526006909201546080909101528101519091506001600160a01b038681169116146108e3575f91505061095c565b8360038111156108f5576108f56109ee565b8160600151600381111561090b5761090b6109ee565b14610919575f91505061095c565b8060c001511561092c575f91505061095c565b428160a001511015610941575f91505061095c565b8060800151831115610956575f91505061095c565b60019150505b949350505050565b80356001600160a01b038116811461097a575f80fd5b919050565b80356004811061097a575f80fd5b5f805f805f60a086880312156109a1575f80fd5b853594506109b160208701610964565b93506109bf6040870161097f565b94979396509394606081013594506080013592915050565b5f602082840312156109e7575f80fd5b5035919050565b634e487b7160e01b5f52602160045260245ffd5b8881526001600160a01b03888116602083015287166040820152610100810160048710610a3d57634e487b7160e01b5f52602160045260245ffd5b6060820196909652608081019490945260a0840192909252151560c083015260e0909101529392505050565b5f805f8060808587031215610a7c575f80fd5b610a8585610964565b9350610a936020860161097f565b93969395505050506040820135916060013590565b5f805f805f805f80610100898b031215610ac0575f80fd5b88359750610ad060208a01610964565b9650610ade60408a0161097f565b9550606089013594506080890135935060a089013560ff81168114610b01575f80fd5b979a969950949793969295929450505060c08201359160e0013590565b5f60208284031215610b2e575f80fd5b610b3782610964565b9392505050565b5f805f8060808587031215610b51575f80fd5b84359350610b6160208601610964565b9250610b6f6040860161097f565b9396929550929360600135925050565b634e487b7160e01b5f52601160045260245ffd5b5f60018201610ba457610ba4610b7f565b5060010190565b80820180821115610bbe57610bbe610b7f565b92915050565b5f6bffffffffffffffffffffffff19808a60601b168352808960601b1660148401525060048710610c0357634e487b7160e01b5f52602160045260245ffd5b5060f89590951b6028860152602985019390935260498401919091526069830152608982015260a9019291505056fea264697066735822122087f6b20db67dd8e804f90d1107056031f3de6f714609e276d58a9d28705daf5964736f6c63430008180033","linkReferences":{}},"methodIdentifiers":{"DOMAIN_SEPARATOR()":"3644e515","authTokens(bytes32)":"9584b419","consumeAuth(bytes32,address,uint8,uint256,uint256,uint8,bytes32,bytes32)":"c3a3fded","getAuthDigest(bytes32,address,uint8,uint256,uint256)":"88e40e5e","issueAuthToken(address,uint8,uint256,uint256)":"b4b51a74","ownerNonce(address)":"e8ad29b4","revokeAuthToken(bytes32)":"96db5f9c","usedDigests(bytes32)":"d39c4de7","validateAuth(bytes32,address,uint8,uint256)":"f066faf4"},"id":0}