{"abi":[{"type":"constructor","inputs":[{"name":"admin_","type":"address","internalType":"address"},{"name":"billManager_","type":"address","internalType":"address"}],"stateMutability":"nonpayable"},{"type":"function","name":"admin","inputs":[],"outputs":[{"name":"","type":"address","internalType":"address"}],"stateMutability":"view"},{"type":"function","name":"billManager","inputs":[],"outputs":[{"name":"","type":"address","internalType":"contract IBillManager"}],"stateMutability":"view"},{"type":"function","name":"closeBatch","inputs":[{"name":"batchId","type":"uint256","internalType":"uint256"}],"outputs":[],"stateMutability":"nonpayable"},{"type":"function","name":"settleBatch","inputs":[{"name":"batchId","type":"uint256","internalType":"uint256"}],"outputs":[],"stateMutability":"nonpayable"},{"type":"error","name":"DeprecatedEntryPoint","inputs":[]},{"type":"error","name":"InvalidAddress","inputs":[]}],"bytecode":{"object":"0x60c060405234801561000f575f80fd5b5060405161021138038061021183398101604081905261002e9161009b565b6001600160a01b038216158061004b57506001600160a01b038116155b156100695760405163e6c4247b60e01b815260040160405180910390fd5b6001600160a01b039182166080521660a0526100cc565b80516001600160a01b0381168114610096575f80fd5b919050565b5f80604083850312156100ac575f80fd5b6100b583610080565b91506100c360208401610080565b90509250929050565b60805160a0516101266100eb5f395f605d01525f609f01526101265ff3fe6080604052348015600e575f80fd5b50600436106044575f3560e01c806328c688f3146048578063d2c411d3146048578063d7fe8035146059578063f851a44014609b575b5f80fd5b6057605336600460da565b60c1565b005b607f7f000000000000000000000000000000000000000000000000000000000000000081565b6040516001600160a01b03909116815260200160405180910390f35b607f7f000000000000000000000000000000000000000000000000000000000000000081565b60405163225359c160e11b815260040160405180910390fd5b5f6020828403121560e9575f80fd5b503591905056fea26469706673582212205ec6f548b8da3b47b2806a2d528107909e0eea0eb0e565928b256eeda4001ae664736f6c63430008180033","linkReferences":{}},"methodIdentifiers":{"admin()":"f851a440","billManager()":"d7fe8035","closeBatch(uint256)":"d2c411d3","settleBatch(uint256)":"28c688f3"},"id":1}