{"abi":[{"type":"function","name":"allowance","inputs":[{"name":"","type":"address","internalType":"address"},{"name":"","type":"address","internalType":"address"}],"outputs":[{"name":"","type":"uint256","internalType":"uint256"}],"stateMutability":"view"},{"type":"function","name":"approve","inputs":[{"name":"spender","type":"address","internalType":"address"},{"name":"amount","type":"uint256","internalType":"uint256"}],"outputs":[{"name":"","type":"bool","internalType":"bool"}],"stateMutability":"nonpayable"},{"type":"function","name":"balanceOf","inputs":[{"name":"","type":"address","internalType":"address"}],"outputs":[{"name":"","type":"uint256","internalType":"uint256"}],"stateMutability":"view"},{"type":"function","name":"decimals","inputs":[],"outputs":[{"name":"","type":"uint8","internalType":"uint8"}],"stateMutability":"view"},{"type":"function","name":"mint","inputs":[{"name":"to","type":"address","internalType":"address"},{"name":"amount","type":"uint256","internalType":"uint256"}],"outputs":[],"stateMutability":"nonpayable"},{"type":"function","name":"name","inputs":[],"outputs":[{"name":"","type":"string","internalType":"string"}],"stateMutability":"view"},{"type":"function","name":"symbol","inputs":[],"outputs":[{"name":"","type":"string","internalType":"string"}],"stateMutability":"view"},{"type":"function","name":"transfer","inputs":[{"name":"to","type":"address","internalType":"address"},{"name":"amount","type":"uint256","internalType":"uint256"}],"outputs":[{"name":"","type":"bool","internalType":"bool"}],"stateMutability":"nonpayable"},{"type":"function","name":"transferFrom","inputs":[{"name":"from","type":"address","internalType":"address"},{"name":"to","type":"address","internalType":"address"},{"name":"amount","type":"uint256","internalType":"uint256"}],"outputs":[{"name":"","type":"bool","internalType":"bool"}],"stateMutability":"nonpayable"}],"bytecode":{"object":"0x60c060405260096080908152684d6f636b205553444360b81b60a0525f906100279082610108565b506040805180820190915260058152646d5553444360d81b60208201526001906100519082610108565b506002805460ff1916600617905534801561006a575f80fd5b506101c7565b634e487b7160e01b5f52604160045260245ffd5b600181811c9082168061009857607f821691505b6020821081036100b657634e487b7160e01b5f52602260045260245ffd5b50919050565b601f82111561010357805f5260205f20601f840160051c810160208510156100e15750805b601f840160051c820191505b81811015610100575f81556001016100ed565b50505b505050565b81516001600160401b0381111561012157610121610070565b6101358161012f8454610084565b846100bc565b602080601f831160018114610168575f84156101515750858301515b5f19600386901b1c1916600185901b1785556101bf565b5f85815260208120601f198616915b8281101561019657888601518255948401946001909101908401610177565b50858210156101b357878501515f19600388901b60f8161c191681555b505060018460011b0185555b505050505050565b6105a5806101d45f395ff3fe608060405234801561000f575f80fd5b5060043610610090575f3560e01c806340c10f191161006357806340c10f191461010757806370a082311461011c57806395d89b4114610149578063a9059cbb14610151578063dd62ed3e14610164575f80fd5b806306fdde0314610094578063095ea7b3146100b257806323b872dd146100d5578063313ce567146100e8575b5f80fd5b61009c61018e565b6040516100a991906103eb565b60405180910390f35b6100c56100c0366004610452565b610219565b60405190151581526020016100a9565b6100c56100e336600461047a565b610247565b6002546100f59060ff1681565b60405160ff90911681526020016100a9565b61011a610115366004610452565b610339565b005b61013b61012a3660046104b3565b60036020525f908152604090205481565b6040519081526020016100a9565b61009c610369565b6100c561015f366004610452565b610376565b61013b6101723660046104cc565b600460209081525f928352604080842090915290825290205481565b5f805461019a906104fd565b80601f01602080910402602001604051908101604052809291908181526020018280546101c6906104fd565b80156102115780601f106101e857610100808354040283529160200191610211565b820191905f5260205f20905b8154815290600101906020018083116101f457829003601f168201915b505050505081565b335f9081526004602090815260408083206001600160a01b0386168452909152902081905560015b92915050565b6001600160a01b0383165f9081526003602052604081205482111561026d57505f610332565b6001600160a01b0384165f90815260046020908152604080832033845290915290205482111561029e57505f610332565b6001600160a01b0384165f908152600460209081526040808320338452909152812080548492906102d0908490610549565b90915550506001600160a01b0384165f90815260036020526040812080548492906102fc908490610549565b90915550506001600160a01b0383165f908152600360205260408120805484929061032890849061055c565b9091555060019150505b9392505050565b6001600160a01b0382165f908152600360205260408120805483929061036090849061055c565b90915550505050565b6001805461019a906104fd565b335f9081526003602052604081205482111561039357505f610241565b335f90815260036020526040812080548492906103b1908490610549565b90915550506001600160a01b0383165f90815260036020526040812080548492906103dd90849061055c565b909155506001949350505050565b5f602080835283518060208501525f5b81811015610417578581018301518582016040015282016103fb565b505f604082860101526040601f19601f8301168501019250505092915050565b80356001600160a01b038116811461044d575f80fd5b919050565b5f8060408385031215610463575f80fd5b61046c83610437565b946020939093013593505050565b5f805f6060848603121561048c575f80fd5b61049584610437565b92506104a360208501610437565b9150604084013590509250925092565b5f602082840312156104c3575f80fd5b61033282610437565b5f80604083850312156104dd575f80fd5b6104e683610437565b91506104f460208401610437565b90509250929050565b600181811c9082168061051157607f821691505b60208210810361052f57634e487b7160e01b5f52602260045260245ffd5b50919050565b634e487b7160e01b5f52601160045260245ffd5b8181038181111561024157610241610535565b808201808211156102415761024161053556fea26469706673582212209b06b93beea7b8da6d831d2bd6652e01881a72a88482e6c1127249a9a8df2b2864736f6c63430008180033","linkReferences":{}},"methodIdentifiers":{"allowance(address,address)":"dd62ed3e","approve(address,uint256)":"095ea7b3","balanceOf(address)":"70a08231","decimals()":"313ce567","mint(address,uint256)":"40c10f19","name()":"06fdde03","symbol()":"95d89b41","transfer(address,uint256)":"a9059cbb","transferFrom(address,address,uint256)":"23b872dd"},"id":30}