{"abi":[{"type":"function","name":"MIN_STAKE","inputs":[],"outputs":[{"name":"","type":"uint256","internalType":"uint256"}],"stateMutability":"view"},{"type":"function","name":"didByAgent","inputs":[{"name":"agent","type":"address","internalType":"address"}],"outputs":[{"name":"owner","type":"address","internalType":"address"},{"name":"agent","type":"address","internalType":"address"},{"name":"registeredAt","type":"uint256","internalType":"uint256"},{"name":"validUntil","type":"uint256","internalType":"uint256"},{"name":"permissionsHash","type":"bytes32","internalType":"bytes32"},{"name":"isActive","type":"bool","internalType":"bool"}],"stateMutability":"view"},{"type":"function","name":"registerDID","inputs":[{"name":"agent","type":"address","internalType":"address"},{"name":"permissionsHash","type":"bytes32","internalType":"bytes32"},{"name":"validityDays","type":"uint256","internalType":"uint256"}],"outputs":[{"name":"did","type":"bytes32","internalType":"bytes32"}],"stateMutability":"payable"},{"type":"function","name":"revokeDID","inputs":[{"name":"agent","type":"address","internalType":"address"}],"outputs":[],"stateMutability":"nonpayable"},{"type":"function","name":"updatePermissions","inputs":[{"name":"agent","type":"address","internalType":"address"},{"name":"newPermissionsHash","type":"bytes32","internalType":"bytes32"}],"outputs":[],"stateMutability":"nonpayable"},{"type":"function","name":"verifyDID","inputs":[{"name":"agent","type":"address","internalType":"address"}],"outputs":[{"name":"isValid","type":"bool","internalType":"bool"},{"name":"owner","type":"address","internalType":"address"},{"name":"validUntil","type":"uint256","internalType":"uint256"}],"stateMutability":"view"},{"type":"event","name":"DIDRegistered","inputs":[{"name":"did","type":"bytes32","indexed":true,"internalType":"bytes32"},{"name":"agent","type":"address","indexed":true,"internalType":"address"},{"name":"owner","type":"address","indexed":true,"internalType":"address"},{"name":"validUntil","type":"uint256","indexed":false,"internalType":"uint256"}],"anonymous":false},{"type":"event","name":"DIDRevoked","inputs":[{"name":"agent","type":"address","indexed":true,"internalType":"address"},{"name":"owner","type":"address","indexed":true,"internalType":"address"}],"anonymous":false},{"type":"event","name":"PermissionUpdated","inputs":[{"name":"agent","type":"address","indexed":true,"internalType":"address"},{"name":"newHash","type":"bytes32","indexed":false,"internalType":"bytes32"}],"anonymous":false},{"type":"error","name":"DIDNotActive","inputs":[]},{"type":"error","name":"InvalidAddress","inputs":[]},{"type":"error","name":"InvalidAmount","inputs":[]},{"type":"error","name":"InvalidState","inputs":[]},{"type":"error","name":"Unauthorized","inputs":[]}],"bytecode":{"object":"0x608060405234801561000f575f80fd5b5061064e8061001d5f395ff3fe608060405260043610610054575f3560e01c80630b88f9b214610058578063910f765d146100f557806395d5a3f014610116578063cb1c2b5c1461015a578063e036a27914610174578063e6c129ec14610195575b5f80fd5b348015610063575f80fd5b506100b661007236600461055c565b5f602081905290815260409020805460018201546002830154600384015460048501546005909501546001600160a01b039485169593909416939192909160ff1686565b604080516001600160a01b0397881681529690951660208701529385019290925260608401526080830152151560a082015260c0015b60405180910390f35b61010861010336600461057c565b6101b4565b6040519081526020016100ec565b348015610121575f80fd5b5061013561013036600461055c565b610366565b6040805193151584526001600160a01b039092166020840152908201526060016100ec565b348015610165575f80fd5b50610108662386f26fc1000081565b34801561017f575f80fd5b5061019361018e36600461055c565b6103f2565b005b3480156101a0575f80fd5b506101936101af3660046105ac565b610497565b5f6001600160a01b0384166101dc5760405163e6c4247b60e01b815260040160405180910390fd5b662386f26fc100003410156102045760405163162908e360e11b815260040160405180910390fd5b815f036102245760405163162908e360e11b815260040160405180910390fd5b5f61023283620151806105e8565b61023c9042610605565b6040516bffffffffffffffffffffffff1933606090811b8216602084015288901b1660348201524260488201526068810186905290915060880160408051808303601f19018152828252805160209182012060c084018352338085526001600160a01b038a811684870181815242888801908152606089018a815260808a018e8152600160a08c018181525f878152808c528c90209c518d546001600160a01b0319908116918a16919091178e559551918d0180549096169190971617909355905160028a015551600389015551600488015590516005909601805460ff191696151596909617909555925185815290955091929185917f2f86d3a54972a60e36e92c23172e0c6b584de2396d7f594c9ee1e17c8c300b61910160405180910390a4509392505050565b6001600160a01b038082165f90815260208181526040808320815160c08101835281548616815260018201549095169285019290925260028201549084015260038101546060840152600481015460808401526005015460ff1615801560a084018190529192839283926103de575042816060015110155b815160609092015190969195509350915050565b6001600160a01b038082165f9081526020819052604090208054909116331461042d576040516282b42960e81b815260040160405180910390fd5b600581015460ff166104525760405163baf3f0f760e01b815260040160405180910390fd5b60058101805460ff1916905560405133906001600160a01b038416907f51264899d8a46b9fd75e2dbd9527091c725c6e619cb94fbf20bff41b5ce9c031905f90a35050565b6001600160a01b038083165f908152602081905260409020805490911633146104d2576040516282b42960e81b815260040160405180910390fd5b600581015460ff166104f757604051632f8b034d60e21b815260040160405180910390fd5b600481018290556040518281526001600160a01b038416907fb3596bde5f1462ca79a47580db4d618af5d6d0ff41103518c8aabbfd4373f7279060200160405180910390a2505050565b80356001600160a01b0381168114610557575f80fd5b919050565b5f6020828403121561056c575f80fd5b61057582610541565b9392505050565b5f805f6060848603121561058e575f80fd5b61059784610541565b95602085013595506040909401359392505050565b5f80604083850312156105bd575f80fd5b6105c683610541565b946020939093013593505050565b634e487b7160e01b5f52601160045260245ffd5b80820281158282048414176105ff576105ff6105d4565b92915050565b808201808211156105ff576105ff6105d456fea2646970667358221220bcc80f2df2af02e3b3f166707ab4059271cada1bd136fc1c699bdc7ea988b2de64736f6c63430008180033","linkReferences":{}},"methodIdentifiers":{"MIN_STAKE()":"cb1c2b5c","didByAgent(address)":"0b88f9b2","registerDID(address,bytes32,uint256)":"910f765d","revokeDID(address)":"e036a279","updatePermissions(address,bytes32)":"e6c129ec","verifyDID(address)":"95d5a3f0"},"id":5}