{"abi":[{"type":"constructor","inputs":[{"name":"admin_","type":"address","internalType":"address"}],"stateMutability":"nonpayable"},{"type":"function","name":"admin","inputs":[],"outputs":[{"name":"","type":"address","internalType":"address"}],"stateMutability":"view"},{"type":"function","name":"agentPaused","inputs":[{"name":"agent","type":"address","internalType":"address"}],"outputs":[{"name":"paused","type":"bool","internalType":"bool"}],"stateMutability":"view"},{"type":"function","name":"emergencyPause","inputs":[{"name":"reason","type":"string","internalType":"string"}],"outputs":[],"stateMutability":"nonpayable"},{"type":"function","name":"emergencyResume","inputs":[],"outputs":[],"stateMutability":"nonpayable"},{"type":"function","name":"globalPaused","inputs":[],"outputs":[{"name":"","type":"bool","internalType":"bool"}],"stateMutability":"view"},{"type":"function","name":"humanApprovalThreshold","inputs":[{"name":"owner","type":"address","internalType":"address"}],"outputs":[{"name":"threshold","type":"uint256","internalType":"uint256"}],"stateMutability":"view"},{"type":"function","name":"isAgentPaused","inputs":[{"name":"agent","type":"address","internalType":"address"}],"outputs":[{"name":"","type":"bool","internalType":"bool"}],"stateMutability":"view"},{"type":"function","name":"isGlobalPaused","inputs":[],"outputs":[{"name":"","type":"bool","internalType":"bool"}],"stateMutability":"view"},{"type":"function","name":"pauseAgent","inputs":[{"name":"agent","type":"address","internalType":"address"},{"name":"reason","type":"string","internalType":"string"}],"outputs":[],"stateMutability":"nonpayable"},{"type":"function","name":"resumeAgent","inputs":[{"name":"agent","type":"address","internalType":"address"}],"outputs":[],"stateMutability":"nonpayable"},{"type":"function","name":"setHumanApprovalThreshold","inputs":[{"name":"amount","type":"uint256","internalType":"uint256"}],"outputs":[],"stateMutability":"nonpayable"},{"type":"event","name":"AgentPaused","inputs":[{"name":"agent","type":"address","indexed":true,"internalType":"address"},{"name":"reason","type":"string","indexed":false,"internalType":"string"}],"anonymous":false},{"type":"event","name":"AgentResumed","inputs":[{"name":"agent","type":"address","indexed":true,"internalType":"address"}],"anonymous":false},{"type":"event","name":"GlobalCircuitBreakerResumed","inputs":[{"name":"triggeredBy","type":"address","indexed":true,"internalType":"address"}],"anonymous":false},{"type":"event","name":"GlobalCircuitBreakerTriggered","inputs":[{"name":"triggeredBy","type":"address","indexed":true,"internalType":"address"},{"name":"reason","type":"string","indexed":false,"internalType":"string"}],"anonymous":false},{"type":"event","name":"HumanApprovalThresholdUpdated","inputs":[{"name":"owner","type":"address","indexed":true,"internalType":"address"},{"name":"amount","type":"uint256","indexed":false,"internalType":"uint256"}],"anonymous":false},{"type":"error","name":"InvalidAddress","inputs":[]},{"type":"error","name":"InvalidAmount","inputs":[]},{"type":"error","name":"Unauthorized","inputs":[]}],"bytecode":{"object":"0x60a060405234801561000f575f80fd5b5060405161073838038061073883398101604081905261002e91610066565b6001600160a01b0381166100555760405163e6c4247b60e01b815260040160405180910390fd5b6001600160a01b0316608052610093565b5f60208284031215610076575f80fd5b81516001600160a01b038116811461008c575f80fd5b9392505050565b6080516106716100c75f395f81816101aa015281816101ef015281816102bf015281816103e4015261045f01526106715ff3fe608060405234801561000f575f80fd5b50600436106100a6575f3560e01c806393c87f031161006e57806393c87f031461013357806396ec85f91461013b578063afcb493a14610166578063b714fa3e14610188578063cf5b4fd514610192578063f851a440146101a5575f80fd5b8063121a5f3a146100aa5780633b2c1056146100bf5780635f8c0468146100d257806361a552dc1461010457806383b34f2514610120575b5f80fd5b6100bd6100b8366004610548565b6101e4565b005b6100bd6100cd366004610597565b6102b4565b6100f16100e0366004610597565b60016020525f908152604090205481565b6040519081526020015b60405180910390f35b5f546101109060ff1681565b60405190151581526020016100fb565b6100bd61012e3660046105b7565b61036b565b6100bd6103d9565b610110610149366004610597565b6001600160a01b03165f9081526002602052604090205460ff1690565b610110610174366004610597565b60026020525f908152604090205460ff1681565b5f5460ff16610110565b6100bd6101a03660046105ce565b610454565b6101cc7f000000000000000000000000000000000000000000000000000000000000000081565b6040516001600160a01b0390911681526020016100fb565b336001600160a01b037f0000000000000000000000000000000000000000000000000000000000000000161461022c576040516282b42960e81b815260040160405180910390fd5b6001600160a01b0383166102535760405163e6c4247b60e01b815260040160405180910390fd5b6001600160a01b0383165f8181526002602052604090819020805460ff19166001179055517fabd6346427967799d3ee2d3f05244275df9b66c75ee4bf7ef7c00e0048efc667906102a7908590859061060d565b60405180910390a2505050565b336001600160a01b037f000000000000000000000000000000000000000000000000000000000000000016146102fc576040516282b42960e81b815260040160405180910390fd5b6001600160a01b0381166103235760405163e6c4247b60e01b815260040160405180910390fd5b6001600160a01b0381165f81815260026020526040808220805460ff19169055517f9cea468f7f05e1b81589fc8f78f92f770e8dd1eca40d9333147772e4914615b49190a250565b805f0361038b5760405163162908e360e11b815260040160405180910390fd5b335f8181526001602052604090819020839055517f5f9727f786bc8b9f5e962767bf4f6f44f100baf89834dec95ee57ea7dbba6916906103ce9084815260200190565b60405180910390a250565b336001600160a01b037f00000000000000000000000000000000000000000000000000000000000000001614610421576040516282b42960e81b815260040160405180910390fd5b5f805460ff1916815560405133917fd6e10de26308c9fa25189a60dda21bcf338cb501ba5023e4bf90883db3f7f7e091a2565b336001600160a01b037f0000000000000000000000000000000000000000000000000000000000000000161461049c576040516282b42960e81b815260040160405180910390fd5b5f805460ff1916600117905560405133907f75499c6ff90be02788f46029739bd12b37135f566d21c3e257ed15d56bcc4d6a906104dc908590859061060d565b60405180910390a25050565b80356001600160a01b03811681146104fe575f80fd5b919050565b5f8083601f840112610513575f80fd5b50813567ffffffffffffffff81111561052a575f80fd5b602083019150836020828501011115610541575f80fd5b9250929050565b5f805f6040848603121561055a575f80fd5b610563846104e8565b9250602084013567ffffffffffffffff81111561057e575f80fd5b61058a86828701610503565b9497909650939450505050565b5f602082840312156105a7575f80fd5b6105b0826104e8565b9392505050565b5f602082840312156105c7575f80fd5b5035919050565b5f80602083850312156105df575f80fd5b823567ffffffffffffffff8111156105f5575f80fd5b61060185828601610503565b90969095509350505050565b60208152816020820152818360408301375f818301604090810191909152601f909201601f1916010191905056fea2646970667358221220c659ee68ebaa84c48413b3fd80755f26f5a08d932b60b75e71dbe769798e97bd64736f6c63430008180033","linkReferences":{}},"methodIdentifiers":{"admin()":"f851a440","agentPaused(address)":"afcb493a","emergencyPause(string)":"cf5b4fd5","emergencyResume()":"93c87f03","globalPaused()":"61a552dc","humanApprovalThreshold(address)":"5f8c0468","isAgentPaused(address)":"96ec85f9","isGlobalPaused()":"b714fa3e","pauseAgent(address,string)":"121a5f3a","resumeAgent(address)":"3b2c1056","setHumanApprovalThreshold(uint256)":"83b34f25"},"id":3}