{"abi":[{"type":"constructor","inputs":[{"name":"lockPoolManager_","type":"address","internalType":"address"},{"name":"kyaRegistry_","type":"address","internalType":"address"},{"name":"circuitBreaker_","type":"address","internalType":"address"},{"name":"authTokenManager_","type":"address","internalType":"address"}],"stateMutability":"nonpayable"},{"type":"function","name":"activeBatchByPool","inputs":[{"name":"poolId","type":"bytes32","internalType":"bytes32"}],"outputs":[{"name":"batchId","type":"uint256","internalType":"uint256"}],"stateMutability":"view"},{"type":"function","name":"authTokenManager","inputs":[],"outputs":[{"name":"","type":"address","internalType":"contract IAuthTokenManager"}],"stateMutability":"view"},{"type":"function","name":"batchBills","inputs":[{"name":"batchId","type":"uint256","internalType":"uint256"},{"name":"","type":"uint256","internalType":"uint256"}],"outputs":[{"name":"","type":"uint256","internalType":"uint256"}],"stateMutability":"view"},{"type":"function","name":"batches","inputs":[{"name":"batchId","type":"uint256","internalType":"uint256"}],"outputs":[{"name":"batchId","type":"uint256","internalType":"uint256"},{"name":"poolId","type":"bytes32","internalType":"bytes32"},{"name":"totalPending","type":"uint256","internalType":"uint256"},{"name":"billCount","type":"uint256","internalType":"uint256"},{"name":"status","type":"uint8","internalType":"enum Types.BatchStatus"},{"name":"createdAt","type":"uint256","internalType":"uint256"},{"name":"settledAt","type":"uint256","internalType":"uint256"}],"stateMutability":"view"},{"type":"function","name":"billPoolId","inputs":[{"name":"billId","type":"uint256","internalType":"uint256"}],"outputs":[{"name":"poolId","type":"bytes32","internalType":"bytes32"}],"stateMutability":"view"},{"type":"function","name":"bills","inputs":[{"name":"billId","type":"uint256","internalType":"uint256"}],"outputs":[{"name":"billId","type":"uint256","internalType":"uint256"},{"name":"batchId","type":"uint256","internalType":"uint256"},{"name":"fromAgent","type":"address","internalType":"address"},{"name":"toAgent","type":"address","internalType":"address"},{"name":"amount","type":"uint256","internalType":"uint256"},{"name":"purpose","type":"string","internalType":"string"},{"name":"proofHash","type":"string","internalType":"string"},{"name":"status","type":"uint8","internalType":"enum Types.BillStatus"},{"name":"createdAt","type":"uint256","internalType":"uint256"},{"name":"deadline","type":"uint256","internalType":"uint256"}],"stateMutability":"view"},{"type":"function","name":"cancelBill","inputs":[{"name":"billId","type":"uint256","internalType":"uint256"},{"name":"tokenId","type":"bytes32","internalType":"bytes32"},{"name":"authDeadline","type":"uint256","internalType":"uint256"},{"name":"v","type":"uint8","internalType":"uint8"},{"name":"r","type":"bytes32","internalType":"bytes32"},{"name":"s","type":"bytes32","internalType":"bytes32"}],"outputs":[],"stateMutability":"nonpayable"},{"type":"function","name":"circuitBreaker","inputs":[],"outputs":[{"name":"","type":"address","internalType":"contract ICircuitBreaker"}],"stateMutability":"view"},{"type":"function","name":"closeAndSettleBatch","inputs":[{"name":"batchId","type":"uint256","internalType":"uint256"}],"outputs":[],"stateMutability":"nonpayable"},{"type":"function","name":"closeBatch","inputs":[{"name":"batchId","type":"uint256","internalType":"uint256"}],"outputs":[],"stateMutability":"nonpayable"},{"type":"function","name":"confirmBill","inputs":[{"name":"billId","type":"uint256","internalType":"uint256"},{"name":"tokenId","type":"bytes32","internalType":"bytes32"},{"name":"authDeadline","type":"uint256","internalType":"uint256"},{"name":"v","type":"uint8","internalType":"uint8"},{"name":"r","type":"bytes32","internalType":"bytes32"},{"name":"s","type":"bytes32","internalType":"bytes32"}],"outputs":[],"stateMutability":"nonpayable"},{"type":"function","name":"createBill","inputs":[{"name":"poolId","type":"bytes32","internalType":"bytes32"},{"name":"toAgent","type":"address","internalType":"address"},{"name":"amount","type":"uint256","internalType":"uint256"},{"name":"purpose","type":"string","internalType":"string"},{"name":"proofHash","type":"string","internalType":"string"},{"name":"tokenId","type":"bytes32","internalType":"bytes32"},{"name":"authDeadline","type":"uint256","internalType":"uint256"},{"name":"v","type":"uint8","internalType":"uint8"},{"name":"r","type":"bytes32","internalType":"bytes32"},{"name":"s","type":"bytes32","internalType":"bytes32"}],"outputs":[{"name":"billId","type":"uint256","internalType":"uint256"}],"stateMutability":"nonpayable"},{"type":"function","name":"kyaRegistry","inputs":[],"outputs":[{"name":"","type":"address","internalType":"contract IKYARegistry"}],"stateMutability":"view"},{"type":"function","name":"lockPoolManager","inputs":[],"outputs":[{"name":"","type":"address","internalType":"contract ILockPoolManager"}],"stateMutability":"view"},{"type":"function","name":"nextBatchId","inputs":[],"outputs":[{"name":"","type":"uint256","internalType":"uint256"}],"stateMutability":"view"},{"type":"function","name":"nextBillId","inputs":[],"outputs":[{"name":"","type":"uint256","internalType":"uint256"}],"stateMutability":"view"},{"type":"function","name":"settleBatch","inputs":[{"name":"batchId","type":"uint256","internalType":"uint256"}],"outputs":[],"stateMutability":"nonpayable"},{"type":"event","name":"BatchClosed","inputs":[{"name":"batchId","type":"uint256","indexed":true,"internalType":"uint256"},{"name":"poolId","type":"bytes32","indexed":true,"internalType":"bytes32"}],"anonymous":false},{"type":"event","name":"BatchSettled","inputs":[{"name":"batchId","type":"uint256","indexed":true,"internalType":"uint256"},{"name":"poolId","type":"bytes32","indexed":true,"internalType":"bytes32"},{"name":"amount","type":"uint256","indexed":false,"internalType":"uint256"}],"anonymous":false},{"type":"event","name":"BillCancelled","inputs":[{"name":"billId","type":"uint256","indexed":true,"internalType":"uint256"},{"name":"owner","type":"address","indexed":true,"internalType":"address"}],"anonymous":false},{"type":"event","name":"BillConfirmed","inputs":[{"name":"billId","type":"uint256","indexed":true,"internalType":"uint256"},{"name":"owner","type":"address","indexed":true,"internalType":"address"}],"anonymous":false},{"type":"event","name":"BillCreated","inputs":[{"name":"billId","type":"uint256","indexed":true,"internalType":"uint256"},{"name":"batchId","type":"uint256","indexed":true,"internalType":"uint256"},{"name":"poolId","type":"bytes32","indexed":true,"internalType":"bytes32"},{"name":"fromAgent","type":"address","indexed":false,"internalType":"address"},{"name":"toAgent","type":"address","indexed":false,"internalType":"address"},{"name":"amount","type":"uint256","indexed":false,"internalType":"uint256"}],"anonymous":false},{"type":"error","name":"CircuitBreakerActive","inputs":[]},{"type":"error","name":"DIDNotActive","inputs":[]},{"type":"error","name":"InsufficientMappingBalance","inputs":[]},{"type":"error","name":"InvalidAddress","inputs":[]},{"type":"error","name":"InvalidAmount","inputs":[]},{"type":"error","name":"InvalidState","inputs":[]},{"type":"error","name":"NotFound","inputs":[]},{"type":"error","name":"Unauthorized","inputs":[]}],"bytecode":{"object":"0x61010060405260015f556001805534801562000019575f80fd5b5060405162001cdc38038062001cdc8339810160408190526200003c91620000de565b6001600160a01b03841615806200005a57506001600160a01b038316155b806200006d57506001600160a01b038216155b806200008057506001600160a01b038116155b156200009f5760405163e6c4247b60e01b815260040160405180910390fd5b6001600160a01b0393841660805291831660a052821660c0521660e05262000138565b80516001600160a01b0381168114620000d9575f80fd5b919050565b5f805f8060808587031215620000f2575f80fd5b620000fd85620000c2565b93506200010d60208601620000c2565b92506200011d60408601620000c2565b91506200012d60608601620000c2565b905092959194509250565b60805160a05160c05160e051611b0e620001ce5f395f81816103100152818161058f015281816106e701526110b501525f818161015301528181610d750152610e0e01525f818161010f01528181610ee90152610f8001525f81816102c30152818161079501528181610a0301528181610b6401528181610c610152818161102c0152818161115d015261120e0152611b0e5ff3fe608060405234801561000f575f80fd5b5060043610610106575f3560e01c80635fcf6e191161009e578063c12ed1041161006e578063c12ed1041461029f578063c7b18ce6146102be578063cca2707f146102e5578063d2c411d3146102f8578063f8cb49a71461030b575f80fd5b80635fcf6e19146102195780637387787c146102215780638462a7f814610234578063b32c4d8d1461023d575f80fd5b806328c688f3116100d957806328c688f3146101cb5780632976171c146101e0578063476d1346146101f3578063595498b014610206575f80fd5b806305994a021461010a57806316efd9411461014e57806325fa63151461017557806328bdcde8146101a2575b5f80fd5b6101317f000000000000000000000000000000000000000000000000000000000000000081565b6040516001600160a01b0390911681526020015b60405180910390f35b6101317f000000000000000000000000000000000000000000000000000000000000000081565b610194610183366004611510565b60056020525f908152604090205481565b604051908152602001610145565b6101b56101b0366004611510565b610332565b6040516101459a99989796959493929190611591565b6101de6101d9366004611510565b6104a1565b005b6101de6101ee366004611624565b6104fe565b6101de610201366004611624565b610656565b6101de610214366004611510565b610843565b6101945f5481565b61019461022f36600461172d565b61088d565b61019460015481565b61028c61024b366004611510565b600360208190525f91825260409091208054600182015460028301549383015460048401546005850154600690950154939592949293919260ff9091169187565b60405161014597969594939291906117e6565b6101946102ad366004611510565b60066020525f908152604090205481565b6101317f000000000000000000000000000000000000000000000000000000000000000081565b6101946102f3366004611830565b610923565b6101de610306366004611510565b61094e565b6101317f000000000000000000000000000000000000000000000000000000000000000081565b600260208190525f91825260409091208054600182015492820154600383015460048401546005850180549496956001600160a01b03948516959390941693919261037c90611850565b80601f01602080910402602001604051908101604052809291908181526020018280546103a890611850565b80156103f35780601f106103ca576101008083540402835291602001916103f3565b820191905f5260205f20905b8154815290600101906020018083116103d657829003601f168201915b50505050509080600601805461040890611850565b80601f016020809104026020016040519081016040528092919081815260200182805461043490611850565b801561047f5780601f106104565761010080835404028352916020019161047f565b820191905f5260205f20905b81548152906001019060200180831161046257829003601f168201915b5050505060078301546008840154600990940154929360ff909116929091508a565b5f6104ab826109a5565b905060015b600482015460ff1660028111156104c9576104c961156a565b146104e75760405163baf3f0f760e01b815260040160405180910390fd5b6104f0826109d9565b6104fa8282610aa3565b5050565b5f868152600260205260408120805490910361052d5760405163c5723b5160e01b815260040160405180910390fd5b5f600782015460ff1660038111156105475761054761156a565b146105655760405163baf3f0f760e01b815260040160405180910390fd5b5f61056f88610c3d565b60048084015460405163c3a3fded60e01b81529293506001600160a01b037f0000000000000000000000000000000000000000000000000000000000000000169263c3a3fded926105d0928c928792600192918e918e918e918e9101611882565b6020604051808303815f875af11580156105ec573d5f803e3d5ffd5b505050506040513d601f19601f8201168201806040525081019061061091906118e5565b5060078201805460ff19166001179055604051339089907f11c9d2331c664c82421a777af9bd30eba42aea726d706529ce2f0a863ecbb655905f90a35050505050505050565b5f86815260026020526040812080549091036106855760405163c5723b5160e01b815260040160405180910390fd5b5f600782015460ff16600381111561069f5761069f61156a565b146106bd5760405163baf3f0f760e01b815260040160405180910390fd5b5f6106c788610c3d565b60048084015460405163c3a3fded60e01b81529293506001600160a01b037f0000000000000000000000000000000000000000000000000000000000000000169263c3a3fded92610728928c928792600292918e918e918e918e9101611882565b6020604051808303815f875af1158015610744573d5f803e3d5ffd5b505050506040513d601f19601f8201168201806040525081019061076891906118e5565b505f88815260056020526040908190205460048085015492516395fe6eb760e01b81526001600160a01b037f000000000000000000000000000000000000000000000000000000000000000016936395fe6eb7936107d193909201918252602082015260400190565b5f604051808303815f87803b1580156107e8575f80fd5b505af11580156107fa573d5f803e3d5ffd5b5050505060078201805460ff19166002179055604051339089907f041d0e14dd8abcd72311b1c9267065414e8c2c246ad9914a60cc99ccea19446d905f90a35050505050505050565b5f61084d826109a5565b90505f600482015460ff1660028111156108695761086961156a565b0361088657610877826109d9565b6108818282610d02565b6104f0565b60016104b0565b5f61089e8b8b8b8989898989610d73565b6108a88b8a611145565b5f6108b28c611272565b90506108c2818d8d8d8d8d61133f565b604080513381526001600160a01b038e1660208201529081018c90529092508c90829084907f5e9eb682e52ecebf9ed5f9a4bbcc8d617ba800941f4075ee2dd6879fecee01339060600160405180910390a4509a9950505050505050505050565b6004602052815f5260405f20818154811061093c575f80fd5b905f5260205f20015f91509150505481565b5f610958826109a5565b90505f600482015460ff1660028111156109745761097461156a565b146109925760405163baf3f0f760e01b815260040160405180910390fd5b61099b826109d9565b6104fa8282610d02565b5f81815260036020526040812080549091036109d45760405163c5723b5160e01b815260040160405180910390fd5b919050565b5f81815260036020526040808220600101549051631413ba7960e31b8152600481018290529091907f00000000000000000000000000000000000000000000000000000000000000006001600160a01b03169063a09dd3c890602401602060405180830381865afa158015610a50573d5f803e3d5ffd5b505050506040513d601f19601f82011682018060405250810190610a749190611905565b90506001600160a01b0381163314610a9e576040516282b42960e81b815260040160405180910390fd5b505050565b5f828152600460205260408120815b8154811015610be7575f60025f848481548110610ad157610ad1611920565b905f5260205f20015481526020019081526020015f20905060016003811115610afc57610afc61156a565b600782015460ff166003811115610b1557610b1561156a565b03610bde5780545f9081526005602052604090819020546003830154600480850154935163387659d960e01b8152908101929092526001600160a01b03908116602483015260448201929092527f00000000000000000000000000000000000000000000000000000000000000009091169063387659d9906064015f604051808303815f87803b158015610ba7575f80fd5b505af1158015610bb9573d5f803e3d5ffd5b5050505060078101805460ff191660031790556004810154610bdb9085611948565b93505b50600101610ab2565b5060048301805460ff19166002179055426006840155600183015460405183815285907faf2c4e7d176e152c0cc2e76d8efe25a50448614c471de39ab088d1c944bbb7019060200160405180910390a350505050565b5f81815260056020526040808220549051631413ba7960e31b8152600481018290527f00000000000000000000000000000000000000000000000000000000000000006001600160a01b03169063a09dd3c890602401602060405180830381865afa158015610cae573d5f803e3d5ffd5b505050506040513d601f19601f82011682018060405250810190610cd29190611905565b91506001600160a01b0382163314610cfc576040516282b42960e81b815260040160405180910390fd5b50919050565b60048101805460ff191660019081179091558101545f90815260066020526040902054829003610d405760018101545f908152600660205260408120555b600181015460405183907fb08604d6fa22fca13fc7fe378f3e66b60f6d93b760596289576bcec81a491845905f90a35050565b7f00000000000000000000000000000000000000000000000000000000000000006001600160a01b031663b714fa3e6040518163ffffffff1660e01b8152600401602060405180830381865afa158015610dcf573d5f803e3d5ffd5b505050506040513d601f19601f82011682018060405250810190610df391906118e5565b80610e7f57506040516396ec85f960e01b81523360048201527f00000000000000000000000000000000000000000000000000000000000000006001600160a01b0316906396ec85f990602401602060405180830381865afa158015610e5b573d5f803e3d5ffd5b505050506040513d601f19601f82011682018060405250810190610e7f91906118e5565b15610ea057604051600162fc891960e01b0319815260040160405180910390fd5b6001600160a01b0387161580610eb4575085155b15610ed25760405163162908e360e11b815260040160405180910390fd5b60405163095d5a3f60e41b81523360048201525f907f00000000000000000000000000000000000000000000000000000000000000006001600160a01b0316906395d5a3f090602401606060405180830381865afa158015610f36573d5f803e3d5ffd5b505050506040513d601f19601f82011682018060405250810190610f5a9190611961565b505060405163095d5a3f60e41b81526001600160a01b038a811660048301529192505f917f000000000000000000000000000000000000000000000000000000000000000016906395d5a3f090602401606060405180830381865afa158015610fc5573d5f803e3d5ffd5b505050506040513d601f19601f82011682018060405250810190610fe99190611961565b50509050811580610ff8575080155b1561101657604051632f8b034d60e21b815260040160405180910390fd5b604051631413ba7960e31b8152600481018b90527f00000000000000000000000000000000000000000000000000000000000000006001600160a01b03169063a09dd3c890602401602060405180830381865afa158015611079573d5f803e3d5ffd5b505050506040513d601f19601f8201168201806040525081019061109d9190611905565b5060405163c3a3fded60e01b81526001600160a01b037f0000000000000000000000000000000000000000000000000000000000000000169063c3a3fded906110f8908a9033905f908e908d908d908d908d90600401611882565b6020604051808303815f875af1158015611114573d5f803e3d5ffd5b505050506040513d601f19601f8201168201806040525081019061113891906118e5565b5050505050505050505050565b6040516311236ef760e21b8152600481018390525f907f00000000000000000000000000000000000000000000000000000000000000006001600160a01b03169063448dbbdc90602401602060405180830381865afa1580156111aa573d5f803e3d5ffd5b505050506040513d601f19601f820116820180604052508101906111ce919061199e565b9050818110156111f157604051637c82189d60e01b815260040160405180910390fd5b60405163f136525160e01b815260048101849052602481018390527f00000000000000000000000000000000000000000000000000000000000000006001600160a01b03169063f1365251906044015f604051808303815f87803b158015611257575f80fd5b505af1158015611269573d5f803e3d5ffd5b50505050505050565b5f81815260066020526040812054908190036112ae5760018054905f611297836119b5565b909155505f83815260066020526040902081905590505b5f81815260036020526040812090600482015460ff1660028111156112d5576112d561156a565b146113105760018054905f6112e9836119b5565b909155505f8481526006602090815260408083208490558383526003909152902090925090505b80600501545f03610cfc57818155600181019290925560048201805460ff191690554260059092019190915590565b5f8054818061134d836119b5565b919050559050604051806101400160405280828152602001888152602001336001600160a01b03168152602001866001600160a01b031681526020018581526020018481526020018381526020015f60038111156113ad576113ad61156a565b815260200142815260200142620151806113c79190611948565b90525f82815260026020818152604092839020845181559084015160018201559183015190820180546001600160a01b039283166001600160a01b03199182161790915560608401516003840180549190931691161790556080820151600482015560a0820151600582019061143d9082611a18565b5060c082015160068201906114529082611a18565b5060e082015160078201805460ff191660018360038111156114765761147661156a565b02179055506101008201516008820155610120909101516009909101555f878152600360205260408120600281018054919287926114b5908490611948565b925050819055506001816003015f8282546114d09190611948565b9091555050505f9687526004602090815260408089208054600181018255908a52828a200183905582895260059091529096209490945550929392505050565b5f60208284031215611520575f80fd5b5035919050565b5f81518084525f5b8181101561154b5760208185018101518683018201520161152f565b505f602082860101526020601f19601f83011685010191505092915050565b634e487b7160e01b5f52602160045260245ffd5b6004811061158e5761158e61156a565b50565b8a8152602081018a90526001600160a01b038981166040830152881660608201526080810187905261014060a082018190525f906115d183820189611527565b905082810360c08401526115e58188611527565b9150506115f18561157e565b8460e083015283610100830152826101208301529b9a5050505050505050505050565b803560ff811681146109d4575f80fd5b5f805f805f8060c08789031215611639575f80fd5b86359550602087013594506040870135935061165760608801611614565b92506080870135915060a087013590509295509295509295565b6001600160a01b038116811461158e575f80fd5b80356109d481611671565b634e487b7160e01b5f52604160045260245ffd5b5f82601f8301126116b3575f80fd5b813567ffffffffffffffff808211156116ce576116ce611690565b604051601f8301601f19908116603f011681019082821181831017156116f6576116f6611690565b8160405283815286602085880101111561170e575f80fd5b836020870160208301375f602085830101528094505050505092915050565b5f805f805f805f805f806101408b8d031215611747575f80fd5b8a35995061175760208c01611685565b985060408b0135975060608b013567ffffffffffffffff8082111561177a575f80fd5b6117868e838f016116a4565b985060808d013591508082111561179b575f80fd5b506117a88d828e016116a4565b96505060a08b0135945060c08b013593506117c560e08c01611614565b92506101008b013591506101208b013590509295989b9194979a5092959850565b5f60e082019050888252876020830152866040830152856060830152600385106118125761181261156a565b8460808301528360a08301528260c083015298975050505050505050565b5f8060408385031215611841575f80fd5b50508035926020909101359150565b600181811c9082168061186457607f821691505b602082108103610cfc57634e487b7160e01b5f52602260045260245ffd5b8881526001600160a01b038816602082015261010081016118a28861157e565b87604083015286606083015285608083015260ff851660a08301528360c08301528260e08301529998505050505050505050565b805180151581146109d4575f80fd5b5f602082840312156118f5575f80fd5b6118fe826118d6565b9392505050565b5f60208284031215611915575f80fd5b81516118fe81611671565b634e487b7160e01b5f52603260045260245ffd5b634e487b7160e01b5f52601160045260245ffd5b8082018082111561195b5761195b611934565b92915050565b5f805f60608486031215611973575f80fd5b61197c846118d6565b9250602084015161198c81611671565b80925050604084015190509250925092565b5f602082840312156119ae575f80fd5b5051919050565b5f600182016119c6576119c6611934565b5060010190565b601f821115610a9e57805f5260205f20601f840160051c810160208510156119f25750805b601f840160051c820191505b81811015611a11575f81556001016119fe565b5050505050565b815167ffffffffffffffff811115611a3257611a32611690565b611a4681611a408454611850565b846119cd565b602080601f831160018114611a79575f8415611a625750858301515b5f19600386901b1c1916600185901b178555611ad0565b5f85815260208120601f198616915b82811015611aa757888601518255948401946001909101908401611a88565b5085821015611ac457878501515f19600388901b60f8161c191681555b505060018460011b0185555b50505050505056fea264697066735822122061d9a71eb838e7574b11113172b354b7a7d1ae857fcf378e38a9fb5cde04300864736f6c63430008180033","linkReferences":{}},"methodIdentifiers":{"activeBatchByPool(bytes32)":"c12ed104","authTokenManager()":"f8cb49a7","batchBills(uint256,uint256)":"cca2707f","batches(uint256)":"b32c4d8d","billPoolId(uint256)":"25fa6315","bills(uint256)":"28bdcde8","cancelBill(uint256,bytes32,uint256,uint8,bytes32,bytes32)":"476d1346","circuitBreaker()":"16efd941","closeAndSettleBatch(uint256)":"595498b0","closeBatch(uint256)":"d2c411d3","confirmBill(uint256,bytes32,uint256,uint8,bytes32,bytes32)":"2976171c","createBill(bytes32,address,uint256,string,string,bytes32,uint256,uint8,bytes32,bytes32)":"7387787c","kyaRegistry()":"05994a02","lockPoolManager()":"c7b18ce6","nextBatchId()":"8462a7f8","nextBillId()":"5fcf6e19","settleBatch(uint256)":"28c688f3"},"id":2}