{"abi":[{"type":"constructor","inputs":[{"name":"kyaRegistry_","type":"address","internalType":"address"}],"stateMutability":"nonpayable"},{"type":"function","name":"admin","inputs":[],"outputs":[{"name":"","type":"address","internalType":"address"}],"stateMutability":"view"},{"type":"function","name":"billManager","inputs":[],"outputs":[{"name":"","type":"address","internalType":"address"}],"stateMutability":"view"},{"type":"function","name":"createLockPool","inputs":[{"name":"agent","type":"address","internalType":"address"},{"name":"token","type":"address","internalType":"address"},{"name":"amount","type":"uint256","internalType":"uint256"}],"outputs":[{"name":"poolId","type":"bytes32","internalType":"bytes32"}],"stateMutability":"nonpayable"},{"type":"function","name":"getMappingBalance","inputs":[{"name":"poolId","type":"bytes32","internalType":"bytes32"}],"outputs":[{"name":"","type":"uint256","internalType":"uint256"}],"stateMutability":"view"},{"type":"function","name":"getPoolAccounting","inputs":[{"name":"poolId","type":"bytes32","internalType":"bytes32"}],"outputs":[{"name":"totalLocked","type":"uint256","internalType":"uint256"},{"name":"mappingBalance","type":"uint256","internalType":"uint256"},{"name":"pendingAmount","type":"uint256","internalType":"uint256"},{"name":"settledAmount","type":"uint256","internalType":"uint256"}],"stateMutability":"view"},{"type":"function","name":"getPoolOwner","inputs":[{"name":"poolId","type":"bytes32","internalType":"bytes32"}],"outputs":[{"name":"","type":"address","internalType":"address"}],"stateMutability":"view"},{"type":"function","name":"kyaRegistry","inputs":[],"outputs":[{"name":"","type":"address","internalType":"contract IKYARegistry"}],"stateMutability":"view"},{"type":"function","name":"ownerPoolNonce","inputs":[{"name":"owner","type":"address","internalType":"address"}],"outputs":[{"name":"","type":"uint256","internalType":"uint256"}],"stateMutability":"view"},{"type":"function","name":"pools","inputs":[{"name":"poolId","type":"bytes32","internalType":"bytes32"}],"outputs":[{"name":"poolId","type":"bytes32","internalType":"bytes32"},{"name":"owner","type":"address","internalType":"address"},{"name":"agent","type":"address","internalType":"address"},{"name":"token","type":"address","internalType":"address"},{"name":"totalLocked","type":"uint256","internalType":"uint256"},{"name":"mappingBalance","type":"uint256","internalType":"uint256"},{"name":"pendingAmount","type":"uint256","internalType":"uint256"},{"name":"settledAmount","type":"uint256","internalType":"uint256"},{"name":"batchId","type":"uint256","internalType":"uint256"},{"name":"createdAt","type":"uint256","internalType":"uint256"}],"stateMutability":"view"},{"type":"function","name":"releasePendingOnCancel","inputs":[{"name":"poolId","type":"bytes32","internalType":"bytes32"},{"name":"amount","type":"uint256","internalType":"uint256"}],"outputs":[],"stateMutability":"nonpayable"},{"type":"function","name":"reserveMappingForBill","inputs":[{"name":"poolId","type":"bytes32","internalType":"bytes32"},{"name":"amount","type":"uint256","internalType":"uint256"}],"outputs":[],"stateMutability":"nonpayable"},{"type":"function","name":"setBillManager","inputs":[{"name":"billManager_","type":"address","internalType":"address"}],"outputs":[],"stateMutability":"nonpayable"},{"type":"function","name":"settleFromPendingAndPayout","inputs":[{"name":"poolId","type":"bytes32","internalType":"bytes32"},{"name":"to","type":"address","internalType":"address"},{"name":"amount","type":"uint256","internalType":"uint256"}],"outputs":[],"stateMutability":"nonpayable"},{"type":"function","name":"topUpLockPool","inputs":[{"name":"poolId","type":"bytes32","internalType":"bytes32"},{"name":"amount","type":"uint256","internalType":"uint256"}],"outputs":[],"stateMutability":"nonpayable"},{"type":"function","name":"withdrawLockPool","inputs":[{"name":"poolId","type":"bytes32","internalType":"bytes32"},{"name":"amount","type":"uint256","internalType":"uint256"}],"outputs":[],"stateMutability":"nonpayable"},{"type":"event","name":"LockPoolCreated","inputs":[{"name":"poolId","type":"bytes32","indexed":true,"internalType":"bytes32"},{"name":"owner","type":"address","indexed":true,"internalType":"address"},{"name":"agent","type":"address","indexed":true,"internalType":"address"},{"name":"token","type":"address","indexed":false,"internalType":"address"},{"name":"amount","type":"uint256","indexed":false,"internalType":"uint256"}],"anonymous":false},{"type":"event","name":"LockPoolToppedUp","inputs":[{"name":"poolId","type":"bytes32","indexed":true,"internalType":"bytes32"},{"name":"amount","type":"uint256","indexed":false,"internalType":"uint256"}],"anonymous":false},{"type":"event","name":"LockPoolWithdrawn","inputs":[{"name":"poolId","type":"bytes32","indexed":true,"internalType":"bytes32"},{"name":"amount","type":"uint256","indexed":false,"internalType":"uint256"}],"anonymous":false},{"type":"error","name":"InsufficientMappingBalance","inputs":[]},{"type":"error","name":"InvalidAddress","inputs":[]},{"type":"error","name":"InvalidAmount","inputs":[]},{"type":"error","name":"InvalidState","inputs":[]},{"type":"error","name":"NotFound","inputs":[]},{"type":"error","name":"PendingAmountNotZero","inputs":[]},{"type":"error","name":"TokenTransferFailed","inputs":[]},{"type":"error","name":"Unauthorized","inputs":[]}],"bytecode":{"object":"0x60c060405234801561000f575f80fd5b50604051610fef380380610fef83398101604081905261002e9161006a565b6001600160a01b0381166100555760405163e6c4247b60e01b815260040160405180910390fd5b6001600160a01b03166080523360a052610097565b5f6020828403121561007a575f80fd5b81516001600160a01b0381168114610090575f80fd5b9392505050565b60805160a051610f2a6100c55f395f818161035c0152610cdb01525f818160f901526106970152610f2a5ff3fe608060405234801561000f575f80fd5b50600436106100f0575f3560e01c8063b5217bb411610093578063f136525111610063578063f136525114610331578063f2a85fdb14610344578063f851a44014610357578063f9b855f61461037e575f80fd5b8063b5217bb4146101e2578063be3a0552146102a8578063c21f36d514610300578063d7fe80351461031f575f80fd5b806395fe6eb7116100ce57806395fe6eb71461017d578063a09dd3c814610190578063a8c722df146101bc578063b2ce7133146101cf575f80fd5b806305994a02146100f4578063387659d914610138578063448dbbdc1461014d575b5f80fd5b61011b7f000000000000000000000000000000000000000000000000000000000000000081565b6040516001600160a01b0390911681526020015b60405180910390f35b61014b610146366004610d77565b610391565b005b61016f61015b366004610dac565b5f9081526001602052604090206005015490565b60405190815260200161012f565b61014b61018b366004610dc3565b610547565b61011b61019e366004610dac565b5f90815260016020819052604090912001546001600160a01b031690565b61016f6101ca366004610de3565b610618565b61014b6101dd366004610dc3565b610900565b61024f6101f0366004610dac565b600160208190525f918252604090912080549181015460028201546003830154600484015460058501546006860154600787015460088801546009909801546001600160a01b039788169896881697909516959394929391929091908a565b604080519a8b526001600160a01b03998a1660208c0152978916978a0197909752969094166060880152608087019290925260a086015260c085015260e08401526101008301919091526101208201526101400161012f565b6102e06102b6366004610dac565b5f908152600160205260409020600481015460058201546006830154600790930154919390929190565b60408051948552602085019390935291830152606082015260800161012f565b61016f61030e366004610e10565b60026020525f908152604090205481565b5f5461011b906001600160a01b031681565b61014b61033f366004610dc3565b610ab3565b61014b610352366004610dc3565b610b7a565b61011b7f000000000000000000000000000000000000000000000000000000000000000081565b61014b61038c366004610e10565b610cd0565b5f546001600160a01b031633146103ba576040516282b42960e81b815260040160405180910390fd5b6001600160a01b03821615806103ce575080155b156103ec5760405163162908e360e11b815260040160405180910390fd5b5f83815260016020526040902080546104185760405163c5723b5160e01b815260040160405180910390fd5b818160060154101561043d5760405163baf3f0f760e01b815260040160405180910390fd5b818160040154101561046257604051637c82189d60e01b815260040160405180910390fd5b81816006015f8282546104759190610e46565b9250508190555081816004015f82825461048f9190610e46565b9250508190555081816007015f8282546104a99190610e5f565b9091555050600381015460405163a9059cbb60e01b81526001600160a01b038581166004830152602482018590529091169063a9059cbb906044016020604051808303815f875af1158015610500573d5f803e3d5ffd5b505050506040513d601f19601f820116820180604052508101906105249190610e86565b6105415760405163022e258160e11b815260040160405180910390fd5b50505050565b5f546001600160a01b03163314610570576040516282b42960e81b815260040160405180910390fd5b805f036105905760405163162908e360e11b815260040160405180910390fd5b5f82815260016020526040902080546105bc5760405163c5723b5160e01b815260040160405180910390fd5b81816006015410156105e15760405163baf3f0f760e01b815260040160405180910390fd5b81816006015f8282546105f49190610e46565b9250508190555081816005015f82825461060e9190610e5f565b9091555050505050565b5f6001600160a01b038416158061063657506001600160a01b038316155b156106545760405163e6c4247b60e01b815260040160405180910390fd5b815f036106745760405163162908e360e11b815260040160405180910390fd5b60405163095d5a3f60e41b81526001600160a01b0385811660048301525f9182917f000000000000000000000000000000000000000000000000000000000000000016906395d5a3f090602401606060405180830381865afa1580156106dc573d5f803e3d5ffd5b505050506040513d601f19601f820116820180604052508101906107009190610e9f565b509150915081158061071b57506001600160a01b0381163314155b15610738576040516282b42960e81b815260040160405180910390fd5b335f9081526002602052604081208054829061075390610edc565b91829055506040516bffffffffffffffffffffffff1933606090811b821660208401528a811b8216603484015289901b166048820152605c810182905246607c820152909150609c0160408051808303601f1901815282825280516020918201205f818152600192839052929092208281558082018054336001600160a01b0319918216811790925560028301805482166001600160a01b038f811691909117909155600384018054909216908d1690811790915560048084018c9055600584018c905560088401949094554260098401556323b872dd60e01b8652928501523060248501526044840189905291965090916323b872dd906064016020604051808303815f875af115801561086a573d5f803e3d5ffd5b505050506040513d601f19601f8201168201806040525081019061088e9190610e86565b6108ab5760405163022e258160e11b815260040160405180910390fd5b604080516001600160a01b038981168252602082018990528a1691339188917f3e5e13ec86f0fed126b0b19f40beb87c5fdc8d61b337ee6419f2f951a86b4062910160405180910390a4505050509392505050565b805f036109205760405163162908e360e11b815260040160405180910390fd5b5f828152600160208190526040909120908101546001600160a01b0316331461095b576040516282b42960e81b815260040160405180910390fd5b60068101541561097e5760405163cca6254f60e01b815260040160405180910390fd5b81816005015410806109935750818160040154105b156109b157604051637c82189d60e01b815260040160405180910390fd5b81816004015f8282546109c49190610e46565b9250508190555081816005015f8282546109de9190610e46565b9091555050600381015460405163a9059cbb60e01b8152336004820152602481018490526001600160a01b039091169063a9059cbb906044016020604051808303815f875af1158015610a33573d5f803e3d5ffd5b505050506040513d601f19601f82011682018060405250810190610a579190610e86565b610a745760405163022e258160e11b815260040160405180910390fd5b827f76e78d356886f5d13bbb2f6c87d3a953b78d5e903f5a01e14ce23e4814fdf59383604051610aa691815260200190565b60405180910390a2505050565b5f546001600160a01b03163314610adc576040516282b42960e81b815260040160405180910390fd5b805f03610afc5760405163162908e360e11b815260040160405180910390fd5b5f8281526001602052604090208054610b285760405163c5723b5160e01b815260040160405180910390fd5b8181600501541015610b4d57604051637c82189d60e01b815260040160405180910390fd5b81816005015f828254610b609190610e46565b9250508190555081816006015f82825461060e9190610e5f565b805f03610b9a5760405163162908e360e11b815260040160405180910390fd5b5f828152600160208190526040909120908101546001600160a01b03163314610bd5576040516282b42960e81b815260040160405180910390fd5b81816004015f828254610be89190610e5f565b9250508190555081816005015f828254610c029190610e5f565b909155505060038101546040516323b872dd60e01b8152336004820152306024820152604481018490526001600160a01b03909116906323b872dd906064016020604051808303815f875af1158015610c5d573d5f803e3d5ffd5b505050506040513d601f19601f82011682018060405250810190610c819190610e86565b610c9e5760405163022e258160e11b815260040160405180910390fd5b827f98246b5da1d7f620e5642e43ae1fda83697a1de5220c62518396b1e27c8fc87e83604051610aa691815260200190565b336001600160a01b037f00000000000000000000000000000000000000000000000000000000000000001614610d18576040516282b42960e81b815260040160405180910390fd5b6001600160a01b038116610d3f5760405163e6c4247b60e01b815260040160405180910390fd5b5f80546001600160a01b0319166001600160a01b0392909216919091179055565b6001600160a01b0381168114610d74575f80fd5b50565b5f805f60608486031215610d89575f80fd5b833592506020840135610d9b81610d60565b929592945050506040919091013590565b5f60208284031215610dbc575f80fd5b5035919050565b5f8060408385031215610dd4575f80fd5b50508035926020909101359150565b5f805f60608486031215610df5575f80fd5b8335610e0081610d60565b92506020840135610d9b81610d60565b5f60208284031215610e20575f80fd5b8135610e2b81610d60565b9392505050565b634e487b7160e01b5f52601160045260245ffd5b81810381811115610e5957610e59610e32565b92915050565b80820180821115610e5957610e59610e32565b80518015158114610e81575f80fd5b919050565b5f60208284031215610e96575f80fd5b610e2b82610e72565b5f805f60608486031215610eb1575f80fd5b610eba84610e72565b92506020840151610eca81610d60565b80925050604084015190509250925092565b5f60018201610eed57610eed610e32565b506001019056fea2646970667358221220ef356ccf3fd2f1892f7f82e13f3a3c186595e66d4f2bda1371a7f43d88ca17f164736f6c63430008180033","linkReferences":{}},"methodIdentifiers":{"admin()":"f851a440","billManager()":"d7fe8035","createLockPool(address,address,uint256)":"a8c722df","getMappingBalance(bytes32)":"448dbbdc","getPoolAccounting(bytes32)":"be3a0552","getPoolOwner(bytes32)":"a09dd3c8","kyaRegistry()":"05994a02","ownerPoolNonce(address)":"c21f36d5","pools(bytes32)":"b5217bb4","releasePendingOnCancel(bytes32,uint256)":"95fe6eb7","reserveMappingForBill(bytes32,uint256)":"f1365251","setBillManager(address)":"f9b855f6","settleFromPendingAndPayout(bytes32,address,uint256)":"387659d9","topUpLockPool(bytes32,uint256)":"f2a85fdb","withdrawLockPool(bytes32,uint256)":"b2ce7133"},"id":6}