{"abi":[{"type":"function","name":"allowance","inputs":[{"name":"","type":"address","internalType":"address"},{"name":"","type":"address","internalType":"address"}],"outputs":[{"name":"","type":"uint256","internalType":"uint256"}],"stateMutability":"view"},{"type":"function","name":"approve","inputs":[{"name":"spender","type":"address","internalType":"address"},{"name":"amount","type":"uint256","internalType":"uint256"}],"outputs":[{"name":"","type":"bool","internalType":"bool"}],"stateMutability":"nonpayable"},{"type":"function","name":"balanceOf","inputs":[{"name":"","type":"address","internalType":"address"}],"outputs":[{"name":"","type":"uint256","internalType":"uint256"}],"stateMutability":"view"},{"type":"function","name":"decimals","inputs":[],"outputs":[{"name":"","type":"uint8","internalType":"uint8"}],"stateMutability":"view"},{"type":"function","name":"mint","inputs":[{"name":"to","type":"address","internalType":"address"},{"name":"amount","type":"uint256","internalType":"uint256"}],"outputs":[],"stateMutability":"nonpayable"},{"type":"function","name":"name","inputs":[],"outputs":[{"name":"","type":"string","internalType":"string"}],"stateMutability":"view"},{"type":"function","name":"symbol","inputs":[],"outputs":[{"name":"","type":"string","internalType":"string"}],"stateMutability":"view"},{"type":"function","name":"transfer","inputs":[{"name":"to","type":"address","internalType":"address"},{"name":"amount","type":"uint256","internalType":"uint256"}],"outputs":[{"name":"","type":"bool","internalType":"bool"}],"stateMutability":"nonpayable"},{"type":"function","name":"transferFrom","inputs":[{"name":"from","type":"address","internalType":"address"},{"name":"to","type":"address","internalType":"address"},{"name":"amount","type":"uint256","internalType":"uint256"}],"outputs":[{"name":"","type":"bool","internalType":"bool"}],"stateMutability":"nonpayable"},{"type":"event","name":"Approval","inputs":[{"name":"owner","type":"address","indexed":true,"internalType":"address"},{"name":"spender","type":"address","indexed":true,"internalType":"address"},{"name":"value","type":"uint256","indexed":false,"internalType":"uint256"}],"anonymous":false},{"type":"event","name":"Transfer","inputs":[{"name":"from","type":"address","indexed":true,"internalType":"address"},{"name":"to","type":"address","indexed":true,"internalType":"address"},{"name":"value","type":"uint256","indexed":false,"internalType":"uint256"}],"anonymous":false}],"bytecode":{"object":"0x60c0604052600f60809081526e536574746c656d656e74205553444360881b60a0525f9061002d908261010e565b50604080518082019091526005815264735553444360d81b6020820152600190610057908261010e565b506002805460ff19166006179055348015610070575f80fd5b506101cd565b634e487b7160e01b5f52604160045260245ffd5b600181811c9082168061009e57607f821691505b6020821081036100bc57634e487b7160e01b5f52602260045260245ffd5b50919050565b601f82111561010957805f5260205f20601f840160051c810160208510156100e75750805b601f840160051c820191505b81811015610106575f81556001016100f3565b50505b505050565b81516001600160401b0381111561012757610127610076565b61013b81610135845461008a565b846100c2565b602080601f83116001811461016e575f84156101575750858301515b5f19600386901b1c1916600185901b1785556101c5565b5f85815260208120601f198616915b8281101561019c5788860151825594840194600190910190840161017d565b50858210156101b957878501515f19600388901b60f8161c191681555b505060018460011b0185555b505050505050565b6106a5806101da5f395ff3fe608060405234801561000f575f80fd5b5060043610610090575f3560e01c806340c10f191161006357806340c10f191461010757806370a082311461011c57806395d89b4114610149578063a9059cbb14610151578063dd62ed3e14610164575f80fd5b806306fdde0314610094578063095ea7b3146100b257806323b872dd146100d5578063313ce567146100e8575b5f80fd5b61009c61018e565b6040516100a991906104eb565b60405180910390f35b6100c56100c0366004610552565b610219565b60405190151581526020016100a9565b6100c56100e336600461057a565b610285565b6002546100f59060ff1681565b60405160ff90911681526020016100a9565b61011a610115366004610552565b6103c5565b005b61013b61012a3660046105b3565b60036020525f908152604090205481565b6040519081526020016100a9565b61009c610435565b6100c561015f366004610552565b610442565b61013b6101723660046105cc565b600460209081525f928352604080842090915290825290205481565b5f805461019a906105fd565b80601f01602080910402602001604051908101604052809291908181526020018280546101c6906105fd565b80156102115780601f106101e857610100808354040283529160200191610211565b820191905f5260205f20905b8154815290600101906020018083116101f457829003601f168201915b505050505081565b335f8181526004602090815260408083206001600160a01b038716808552925280832085905551919290917f8c5be1e5ebec7d5bd14f71427d1e84f3dd0314c0f7b2291e5b200ac8c7c3b925906102739086815260200190565b60405180910390a35060015b92915050565b6001600160a01b0383165f908152600360205260408120548211156102ab57505f6103be565b6001600160a01b0384165f9081526004602090815260408083203384529091529020548211156102dc57505f6103be565b6001600160a01b0384165f9081526004602090815260408083203384529091528120805484929061030e908490610649565b90915550506001600160a01b0384165f908152600360205260408120805484929061033a908490610649565b90915550506001600160a01b0383165f908152600360205260408120805484929061036690849061065c565b92505081905550826001600160a01b0316846001600160a01b03167fddf252ad1be2c89b69c2b068fc378daa952ba7f163c4a11628f55a4df523b3ef846040516103b291815260200190565b60405180910390a35060015b9392505050565b6001600160a01b0382165f90815260036020526040812080548392906103ec90849061065c565b90915550506040518181526001600160a01b038316905f907fddf252ad1be2c89b69c2b068fc378daa952ba7f163c4a11628f55a4df523b3ef9060200160405180910390a35050565b6001805461019a906105fd565b335f9081526003602052604081205482111561045f57505f61027f565b335f908152600360205260408120805484929061047d908490610649565b90915550506001600160a01b0383165f90815260036020526040812080548492906104a990849061065c565b90915550506040518281526001600160a01b0384169033907fddf252ad1be2c89b69c2b068fc378daa952ba7f163c4a11628f55a4df523b3ef90602001610273565b5f602080835283518060208501525f5b81811015610517578581018301518582016040015282016104fb565b505f604082860101526040601f19601f8301168501019250505092915050565b80356001600160a01b038116811461054d575f80fd5b919050565b5f8060408385031215610563575f80fd5b61056c83610537565b946020939093013593505050565b5f805f6060848603121561058c575f80fd5b61059584610537565b92506105a360208501610537565b9150604084013590509250925092565b5f602082840312156105c3575f80fd5b6103be82610537565b5f80604083850312156105dd575f80fd5b6105e683610537565b91506105f460208401610537565b90509250929050565b600181811c9082168061061157607f821691505b60208210810361062f57634e487b7160e01b5f52602260045260245ffd5b50919050565b634e487b7160e01b5f52601160045260245ffd5b8181038181111561027f5761027f610635565b8082018082111561027f5761027f61063556fea2646970667358221220af96e9898d0f6d41cd5c79d32ed1eafe977b0151eb60f4188699071902f70ea464736f6c63430008180033","linkReferences":{}},"methodIdentifiers":{"allowance(address,address)":"dd62ed3e","approve(address,uint256)":"095ea7b3","balanceOf(address)":"70a08231","decimals()":"313ce567","mint(address,uint256)":"40c10f19","name()":"06fdde03","symbol()":"95d89b41","transfer(address,uint256)":"a9059cbb","transferFrom(address,address,uint256)":"23b872dd"},"id":4}